:020000040800F2
:100000000028002069100008E1070008E707000841
:10001000ED070008F3070008F907000800000000DA
:10002000000000000000000000000000A14D0008DA
:10003000FF07000800000000814F0008C94F0008BA
:10004000B1100008B1100008B1100008B11000088C
:10005000B1100008B1100008B1100008B11000087C
:10006000B1100008B1100008B1100008B11000086C
:10007000B11000080D0800082108000879080008E0
:10008000B1100008B1100008B1100008B11000084C
:10009000B1100008B1100008B1100008B11000083C
:1000A000B11000088D080008B1100008B110000858
:1000B000A1080008B110000800000000B1100008FD
:1000C000B11000080000000000000000B11000089E
:1000D000000000003D090008B11000080000000009
:1000E000B1100008B1100008B110000800000000B5
:1000F0000000000000000000000000000000000000
:0C01000000000000000000005FF808F1A3
:1001100010B5054C237833B9044B13B10448AFF341
:1001200000800123237010BD10000020000000009B
:100130007454000808B5034B1BB103490348AFF3DF
:10014000008008BD00000000140000207454000866
:1001500080B582B000AF144B5B69134A43F00103D2
:100160005361114B5B6903F001037B607B680022E4
:1001700005210D2001F085F80D2001F09EF80022E8
:1001800005210E2001F07DF80E2001F096F80022E6
:1001900005210F2001F075F80F2001F08EF800BF47
:1001A0000837BD4680BD00BF0010024080B485B056
:1001B00000AFF860B9607A60FB68064A1A60BB68F5
:1001C000054A1A607B6880221A6000BF1437BD465A
:1001D00080BC7047380100208C010020B0B588B089
:1001E00000AF0A4B3C1D1D460FCD0FC495E807001C
:1001F00084E807003B1D0021184603F045FF034635
:10020000034A136000BF2037BD46B0BD98540008B4
:100210003401002080B582B000AF7860012003F087
:100220007FFFFBE780B588B000AF07F11003002225
:100230001A605A609A60DA60244B9B69234A43F043
:1002400010039361214B9B6903F01003FB60FB6873
:100250001E4B9B691D4A43F0200393611B4B9B6916
:1002600003F02003BB60BB68184B9B69174A43F03F
:1002700008039361154B9B6903F008037B607B685F
:10028000124B9B69114A43F0040393610F4B9B6926
:1002900003F004033B603B6801224FF400510C481B
:1002A00001F034FC4FF400533B6101237B610023D8
:1002B000BB610223FB6107F110031946044801F0FA
:1002C000A9FA00BF2037BD4680BD00BF0010024024
:1002D0000010014080B582B000AF78607B681B7869
:1002E000013B384A12F82330002B17D17B681B786A
:1002F000013B354A12F82330002B0FD17B681B7865
:10030000013B9B002F4A1344184600F0C9FC7B6850
:100310001B780021184600F059F84EE07B681B78E6
:10032000013B284A12F82330012B23D17B681B782C
:10033000013B244A9B0013445A887B689B889A425D
:1003400018D17B681B78013B9B001E4A134418465A
:1003500000F0B5FC7B681B780121184600F036F8E8
:100360007B681B78013B9B00174A1344184600F03A
:1003700097FC22E07B681B78013B134A12F823307C
:10038000012B1AD17B681B78013B0F4A9B00134459
:100390005A887B685B889A420FD17B681B78013B47
:1003A0009B00094A1344184600F089FC7B685B787F
:1003B000013BDAB27B685A70FFE700BF0837BD46E1
:1003C00080BD00BFDC090020D409002080B582B0C8
:1003D00000AF03460A46FB711346BB71FB79012B44
:1003E00007D1BB791A464FF40051044801F08EFB47
:1003F00000E000BF00BF0837BD4680BD00100140CF
:1004000080B582B000AF78607B689B79002B08D103
:1004100002E07868FFF75EFF7B685B78002BF8D11D
:100420000AE07B689B79012B06D17B685B78002B07
:1004300002D07868FFF74EFF00BF0837BD4680BD89
:1004400080B582B000AF00F035FE1A491A4800F0BE
:10045000A4F800F003FC00F035F8FFF7E3FEFFF727
:1004600077FE00F09BFA00F039FC00F0E5FA134B40
:100470001B686FF001021A61104801F0F9FF0123B7
:100480003B7001237B800123BB800A237B70012307
:10049000BB710B4A0A21084800F09AF8FFF79EFE4C
:1004A00003F0EBFD142000F091FD3B461846FFF7EA
:1004B000A7FFF7E79C0300208C030020FC08002026
:1004C000B454000880B590B000AF07F1180328229B
:1004D0000021184604F0C6FF3B1D00221A605A6036
:1004E0009A60DA601A610123BB614FF48033FB61CB
:1004F00000233B620123BB6202237B634FF4803302
:10050000BB634FF4E013FB6307F11803184601F0D7
:1005100015FB0346002B01D000F03AF80F237B6057
:100520000223BB600023FB604FF480633B614FF408
:1005300080637B613B1D0221184601F081FD03466B
:10054000002B01D000F024F800BF4037BD4680BD2D
:1005500080B582B000AF78600C21034802F0C0F98A
:1005600000BF0837BD4680BD4409002080B582B079
:1005700000AF78607B681B68044A934201D100F0A9
:10058000AFFD00BF0837BD4680BD00BF002C014055
:1005900080B400AF72B600BFFEE780B485B000AF94
:1005A000786039600023FB737B6800225A607B68A7
:1005B0005A687B681A607B6800221A727B683A6806
:1005C000DA60FB7B18461437BD4680BC70470000DC
:1005D00080B586B000AFF860B9607A600023FB7523
:1005E000FB68DA68FB685B6819460B469B010B44A5
:1005F0009B001344BA681A60FB68DA68FB685B68A2
:1006000019460B469B010B449B00134404334FF4E3
:1006100080720021184604F025FFFB68DA68FB6849
:100620005B6819460B469B010B449B001344181D45
:10063000BB685B001A46796804F006FFFB685B68DC
:10064000591C104B83FB01235A10CB17D21A1346A7
:100650009B001344CA1AFB685A60FB681B7A052B7F
:1006600004D1FB685A68FB681A6005E0FB681B7AD6
:100670000133DAB2FB681A72FB7D18461837BD46A3
:1006800080BD00BF6766666680B584B000AF184B5A
:100690009B69174A43F001039361154B9B6903F073
:1006A0000103BB60BB68124BDB69114A43F0805306
:1006B000D3610F4BDB6903F080537B607B680022C2
:1006C0000F216FF0010000F0DCFD0A4B5B68FB605E
:1006D000FB6823F0E063FB60FB6843F00073FB60A2
:1006E000044AFB68536000BF1037BD4680BD00BFA1
:1006F000001002400000014080B58CB000AF78606F
:100700000023BB6200237B62002387F82F302F4B2E
:100710009B692E4A43F4006393612C4B9B6903F45D
:100720000063BB60BB6807F10C0207F110031146C0
:10073000184601F0FFFD01F0E9FD03465B00BB62D6
:10074000BB6A234AA2FB03239B0C013B7B62214B28
:10075000214A1A601F4B40F2E732DA601D4A7B6A79
:1007600053601C4B00221A611A4B00229A60194BED
:1007700000229A61174801F02BFE034687F82F30BC
:1007800097F82F30002B1BD1124801F071FE034661
:1007900087F82F3097F82F30002B11D1192000F057
:1007A0008CFD7B680F2B08D800227968192000F097
:1007B00068FD0A4A7B68136002E0012387F82F3046
:1007C00097F82F3018463037BD4680BD00100240E4
:1007D00083DE1B43B4080020002C014004000020ED
:1007E00080B400AFFEE780B400AFFEE780B400AF96
:1007F000FEE780B400AFFEE780B400AFFEE780B450
:1008000000AF00BFBD4680BC7047000080B500AFA0
:10081000024800F0CBFE00BF80BD00BF8C09002065
:1008200080B500AF104B1B681B6803F04003402BE2
:1008300015D10E4B1B681A680C4B1B6822F0010285
:100840001A604FF480720021094804F00BFE094B36
:1008500000221A60044B1B686FF040021A600348C4
:1008600000F0A4FE00BF80BDE40900206C0A002057
:10087000300000203001002080B500AF024800F0B9
:1008800095FE00BF80BD00BF280A002080B500AFE4
:10089000024802F0E3F800BF80BD00BFB4080020AA
:1008A00080B582B000AF00237B60204B1B78012B0A
:1008B00005D11E4B5B8801339AB21C4B5A80002332
:1008C0007B6028E01A4A7B6812F82330012B0CD198
:1008D000174A7B689B0013445B88013399B2144A22
:1008E0007B689B0013440A465A80124A7B6812F8C0
:1008F0002330012B0CD10F4A7B689B0013445B888B
:10090000013399B20B4A7B689B0013440A465A8014
:100910007B6801337B607B68012BD3DD064802F0E6
:100920009DF800BF0837BD4680BD00BFD00900203C
:10093000D4090020DC090020FC08002080B500AFAD
:100940000F4B1B681B6803F01003102B12D10C48CF
:1009500002F05DFF0B4B1B685B68C3F580731A46A2
:10096000094B1A60094B01221A70054B1B686FF086
:1009700010021A60024802F0A5FF00BF80BD00BF50
:10098000E4090020280A00202C000020B0080020E4
:1009900080B400AF00BFBD4680BC704780B586B054
:1009A00000AF07F1080300221A605A609A60DA600B
:1009B0003B4600221A605A601E4B4FF080421A607C
:1009C0001C4B41F61F425A601A4B00229A60194B89
:1009D00042F20F72DA60174B00221A61154B0022A7
:1009E0009A61144801F0F4FC0346002B01D0FFF794
:1009F000CFFD4FF48053BB6007F1080319460D4843
:100A000002F0F2F90346002B01D0FFF7C1FD0023ED
:100A10003B6000237B603B461946064802F040FEDF
:100A20000346002B01D0FFF7B3FD00BF1837BD46CA
:100A300080BD00BFFC08002080B58EB000AF07F17C
:100A4000280300221A605A609A60DA6007F12003D6
:100A500000221A605A603B1D00221A605A609A6098
:100A6000DA601A615A619A612C4B2D4A1A602B4B3D
:100A700000225A60294B00229A60284B5922DA60E2
:100A8000264B00221A61254B00229A61234801F06F
:100A90009FFC0346002B01D0FFF77AFD4FF48053F3
:100AA000BB6207F1280319461C4802F09DF9034672
:100AB000002B01D0FFF76CFD184801F025FD03461F
:100AC000002B01D0FFF764FD00233B6200237B6213
:100AD00007F120031946114802F0E2FD0346002BFE
:100AE00001D0FFF755FD60237B600023BB6000232E
:100AF000FB6000237B613B1D0C221946074802F076
:100B0000B5F80346002B01D0FFF742FD034800F083
:100B100073F800BF3837BD4680BD00BF44090020D0
:100B20000004004080B584B000AF78607B681B682B
:100B3000B3F1804F14D12C4BDB692B4A43F00103F6
:100B4000D361294BDB6903F00103FB60FB680022E2
:100B500005211C2000F095FB1C2000F0AEFB3EE0C0
:100B60007B681B68214A934239D11F4BDB691E4ABF
:100B700043F00203D3611C4BDB6903F00203BB604B
:100B8000BB681B4B1B4A1A60194B10225A60184B4A
:100B900000229A60164B8022DA60154B4FF4807267
:100BA0001A61134B4FF480625A61114B00229A6113
:100BB0000F4B0022DA610E4800F08EFB0346002B3B
:100BC00001D0FFF7E5FC7B68094A1A63084A7B6895
:100BD00053627B68064A1A62054A7B68536200BF0B
:100BE0001037BD4680BD00BF001002400004004029
:100BF0008C0900203000024080B588B000AF7860DA
:100C000007F1100300221A605A609A60DA607B686C
:100C10001B680F4A934217D10E4B9B690D4A43F054
:100C2000080393610B4B9B6903F00803FB60FB68AF
:100C300002233B6102237B610223FB6107F1100366
:100C40001946054800F0E6FD00BF2037BD4680BDCF
:100C50000004004000100240000C014080B582B04A
:100C600000AF00237B600B4800F029F800237B6075
:100C700008E0094800F023F8084800F020F87B68F5
:100C800001337B607B68012BF3DD00BF00BF0837B9
:100C9000BD4680BDD0090020D4090020DC09002019
:100CA00080B483B000AF78607B6800225A807B6894
:100CB00001221A7000BF0C37BD4680BC704780B45B
:100CC00083B000AF78607B6800221A707B680022D6
:100CD0005A8000BF0C37BD4680BC704780B500AF5E
:100CE000114B124A1A60104B4FF416525A600E4BB9
:100CF00000229A600C4B0022DA600B4B00221A6132
:100D0000094B0C225A61084B00229A61064B0022C3
:100D1000DA61054802F02EFD0346002B01D0FFF7F3
:100D200037FC00BF80BD00BFE4090020003801404F
:100D300080B588B000AF786007F1100300221A6018
:100D40005A609A60DA607B681B68474A934240F0B9
:100D50008680464B9B69454A43F480439361434BED
:100D60009B6903F48043FB60FB68404B9B693F4AEF
:100D700043F0040393613D4B9B6903F00403BB60A4
:100D8000BB684FF400733B6102237B610323FB616B
:100D900007F110031946364800F03CFD4FF480631C
:100DA0003B6100237B610023BB6107F110031946FF
:100DB0002F4800F02FFD2F4B2F4A1A602D4B002299
:100DC0005A602C4B00229A602A4B8022DA60294B11
:100DD00000221A61274B00225A61264B00229A6199
:100DE000244B0022DA61234800F076FA0346002BF8
:100DF00001D0FFF7CDFB7B681E4A9A631D4A7B68D2
:100E000053621E4B1E4A1A601C4B10225A601B4B29
:100E100000229A60194B8022DA60184B00221A6176
:100E2000164B00225A61154B00229A61134B002287
:100E3000DA61124800F050FA0346002B01D0FFF7A8
:100E4000A7FB7B680D4A5A630C4A7B6853620022F9
:100E50000521252000F015FA252000F02EFA00BF0C
:100E60002037BD4680BD00BF003801400010024061
:100E700000080140280A0020580002406C0A0020A7
:100E80004400024080B500AF4FF40873034A0C21C0
:100E9000034801F091FB00BF80BD00BFB00A0020F5
:100EA0004409002080B483B000AF0346FB710B46B9
:100EB000BB7113467B71BB791A04FB791B021A4381
:100EC0007B79134318460C37BD4680BC7047000041
:100ED00080B485B000AF03463960FB80FB88052BEA
:100EE0001ED80023FB7318E0FB7B3A6802FA03F379
:100EF00003F40003002B01D0402100E02421FA88F4
:100F000013465B001344DB001A46FB7B1344074A7D
:100F100022F81310FB7B0133FB73FB7B172BE3D908
:100F200000BF1437BD4680BC704700BFB00A002028
:100F300080B582B000AF0346FB71FB79DB43FB71E8
:100F4000FB79542B11D8FB791A469B00D31ADBB2DC
:100F5000013BD8B2FB791A4652001344DBB21A4661
:100F60000021FFF79FFF03462BE0FB79A92B14D844
:100F7000FB79553BFB71FB791A4652001344D9B2F9
:100F8000FB791A469B00D31ADBB2013BDBB21A464F
:100F90000020FFF787FF034613E0FB795633FB7110
:100FA000FB791A4652001344D8B2FB791A469B00CB
:100FB000D31ADBB2013BDBB200221946FFF772FF06
:100FC000034618460837BD4680BD000080B584B092
:100FD00000AF0346FB7100F095F8B8601E4B1B781C
:100FE000002B02D11D4ABB6813601B4B01221A70F3
:100FF0001A4B1B68BA689A4228D9194B1B780133DF
:10100000DAB2174B1A70FA79BB681344134A1360AB
:101010000023FB8117E0FB891B02124A82FB0312AB
:10102000DB17D31ADAB20E4B1B781344DBB2184627
:10103000FFF77EFF0246FB8911461846FFF748FF7F
:10104000FB890133FB81FB89052BE4D9FFF71AFFEC
:1010500000BF1037BD4680BDF00E0020F40E00200A
:10106000F80E0020ABAAAA2A0C480D490D4A00230D
:1010700002E0D458C4500433C4188C42F9D30A4A4D
:101080000A4C002301E013600432A242FBD3FFF7B5
:101090007FFC04F0B5F9FFF7D3F97047000000209A
:1010A00010000020F8540008100000204C1C002004
:1010B000FEE7000080B500AF084B1B68074A43F00D
:1010C00010031360032000F0D1F80F20FFF714FB8A
:1010D000FFF7DAFA0023184680BD00BF0020024067
:1010E00080B400AF054B1B781A46054B1B681344B0
:1010F000034A136000BFBD4680BC70470800002053
:10110000FC0E002080B400AF024B1B681846BD46A1
:1011100080BC7047FC0E002080B485B000AF7860C2
:101120007B6803F00703FB600C4BDB68BB60BA68AD
:101130004FF6FF031340BB60FB681A02BB68134302
:1011400043F0BF6343F40033BB60044ABB68D36021
:1011500000BF1437BD4680BC704700BF00ED00E003
:1011600080B400AF044BDB681B0A03F0070318468A
:10117000BD4680BC704700BF00ED00E080B483B086
:1011800000AF0346FB7197F90730002B0BDBFB79AF
:1011900003F01F02064997F907305B09012000FAA6
:1011A00002F241F8232000BF0C37BD4680BC7047D7
:1011B00000E100E080B483B000AF03463960FB710A
:1011C00097F90730002B0ADB3B68DAB20C4997F934
:1011D00007301201D2B20B4483F800230AE03B68C7
:1011E000DAB20849FB7903F00F03043B1201D2B2D3
:1011F0000B441A7600BF0C37BD4680BC704700BF59
:1012000000E100E000ED00E080B489B000AFF860DC
:10121000B9607A60FB6803F00703FB61FB69C3F107
:101220000703042B28BF0423BB61FB690433062B8F
:1012300002D9FB69033B00E000237B614FF0FF32E2
:10124000BB6902FA03F3DA43BB681A407B699A4030
:101250004FF0FF317B6901FA03F3D9437B680B4000
:10126000134318462437BD4680BC704780B582B012
:1012700000AF78607868FFF74FFF00BF0837BD46C2
:1012800080BD80B586B000AF0346B9607A60FB735D
:1012900000237B61FFF764FF78617A68B968786939
:1012A000FFF7B2FF024697F90F3011461846FFF7D5
:1012B00081FF00BF1837BD4680BD80B582B000AF4A
:1012C0000346FB7197F907301846FFF757FF00BF39
:1012D0000837BD4680BD000080B485B000AF78609F
:1012E0000023FB607B68002B01D1012343E07B6876
:1012F0001B681A46224B1344224AA2FB03231B09F4
:101300009A007B681A647B681F4ADA637B68022252
:1013100083F821207B681B681B68FB60FB6823F453
:101320007F5323F03003FB607B685A687B689B68BF
:101330001A437B68DB681A437B681B691A437B6826
:101340005B691A437B689B691A437B68DB691343BB
:10135000FA681343FB607B681B68FA681A607B6855
:1013600000229A637B68012283F821207B68002297
:1013700083F82020002318461437BD4680BC7047F0
:10138000F8FFFDBFCDCCCCCC0000024080B586B0CC
:1013900000AFF860B9607A603B600023FB75FB68C2
:1013A00093F82030012B01D102234AE0FB6801228F
:1013B00083F82020FB6893F82130012B3AD1FB6899
:1013C000022283F82120FB6800229A63FB681B68D5
:1013D0001A68FB681B6822F001021A603B687A6891
:1013E000B968F86800F0E8F9FB68DB6A002B08D000
:1013F000FB681B681A68FB681B6842F00E021A60E3
:101400000FE0FB681B681A68FB681B6822F0040287
:101410001A60FB681B681A68FB681B6842F00A02C6
:101420001A60FB681B681A68FB681B6842F00102BF
:101430001A6005E0FB68002283F820200223FB7578
:10144000FB7D18461837BD4680BD80B485B000AF1F
:1014500078600023FB737B6893F82130022B08D05F
:101460007B6804229A637B68002283F82020012392
:1014700020E07B681B681A687B681B6822F00E02FC
:101480001A607B681B681A687B681B6822F001027F
:101490001A607B681A6C7B68DB6B012101FA02F22F
:1014A0005A607B68012283F821207B68002283F840
:1014B0002020FB7B18461437BD4680BC70470000D7
:1014C00080B584B000AF78600023FB737B6893F82D
:1014D0002130022B05D07B6804229A630123FB7321
:1014E00051E07B681B681A687B681B6822F00E025B
:1014F0001A607B681B681A687B681B6822F001020F
:101500001A607B681B68224A934229D07B681B685B
:10151000204A934222D07B681B681F4A93421AD00C
:101520007B681B681D4A934212D07B681B681C4A6B
:1015300093420AD07B681B681A4A934202D14FF447
:1015400080130EE04FF080730BE04FF4803308E01F
:101550004FF4805305E04FF4807302E0102300E065
:101560000123114A53607B68012283F821207B68A4
:10157000002283F820207B685B6B002B03D07B6804
:101580005B6B78689847FB7B18461037BD4680BD7B
:10159000080002401C0002403000024044000240AB
:1015A000580002406C0002400000024080B584B048
:1015B00000AF78607B68DB6B1B68FB607B681B6837
:1015C0001B68BB607B681B6C04229A40FB6813405D
:1015D000002B4FD0BB6803F00403002B4AD07B687C
:1015E0001B681B6803F02003002B07D17B681B6876
:1015F0001A687B681B6822F004021A607B681B680B
:10160000664A934229D07B681B68654A934222D080
:101610007B681B68634A93421AD07B681B68624AE6
:10162000934212D07B681B68604A93420AD07B6861
:101630001B685F4A934202D14FF480030EE04FF0E3
:1016400080630BE04FF4802308E04FF4804305E013
:101650004FF4806302E0402300E00423554A5360C6
:101660007B68DB6A002B00F094807B68DB6A78681B
:1016700098478EE07B681B6C02229A40FB681340FF
:10168000002B56D0BB6803F00203002B51D07B68BF
:101690001B681B6803F02003002B0BD17B681B68C1
:1016A0001A687B681B6822F00A021A607B680122B4
:1016B00083F821207B681B68384A934229D07B68D5
:1016C0001B68374A934222D07B681B68354A934295
:1016D0001AD07B681B68344A934212D07B681B681F
:1016E000324A93420AD07B681B68314A934202D146
:1016F0004FF400130EE04FF000730BE04FF4003393
:1017000008E04FF4005305E04FF4007302E020239B
:1017100000E00223274A53607B68002283F82020E0
:101720007B689B6A002B34D07B689B6A78689847FB
:101730002FE07B681B6C08229A40FB681340002B4B
:1017400028D0BB6803F00803002B23D07B681B68FC
:101750001A687B681B6822F00E021A607B681A6C9C
:101760007B68DB6B012101FA02F25A607B6801227F
:101770009A637B68012283F821207B68002283F82A
:1017800020207B681B6B002B04D07B681B6B786868
:10179000984700BF00BF1037BD4680BD080002401B
:1017A0001C00024030000240440002405800024049
:1017B0006C0002400000024080B485B000AFF860C9
:1017C000B9607A603B60FB681A6CFB68DB6B0121D7
:1017D00001FA02F25A60FB681B683A685A60FB68BB
:1017E0005B68102B08D1FB681B687A689A60FB68FD
:1017F0001B68BA68DA6007E0FB681B68BA689A6021
:10180000FB681B687A68DA6000BF1437BD4680BC8D
:101810007047000080B48BB000AF7860396000235F
:101820007B6200233B6261E101227B6A02FA03F3DF
:10183000FB613B681B68FA691340BB61BA69FB69CD
:101840009A4240F050813B685B68974A93425ED071
:10185000954A934275D8954A934258D0934A9342F9
:101860006FD8934A934252D0914A934269D8914A91
:1018700093424CD08F4A934263D88F4A934246D0CA
:101880008D4A93425DD8122B2AD8122B59D801A227
:1018900052F823F00F190008E9180008FB18000897
:1018A0003D190008431900084319000843190008AE
:1018B0004319000843190008431900084319000898
:1018C0004319000843190008431900084319000888
:1018D0004319000843190008F11800080519000809
:1018E000764A934213D02CE03B68DB683B6229E0E8
:1018F0003B68DB6804333B6224E03B68DB68083309
:101900003B621FE03B68DB680C333B621AE03B68DC
:101910009B68002B02D104233B6213E03B689B6869
:10192000012B05D108233B627B68FA691A6109E043
:1019300008233B627B68FA695A6103E000233B623B
:1019400000E000BFBB69FF2B01D87B6801E07B682A
:1019500004337B61BB69FF2B02D87B6A9B0002E0EA
:101960007B6A083B9B003B617B691A680F213B69DE
:1019700001FA03F3DB431A40396A3B6901FA03F3C6
:101980001A437B691A603B685B6803F08053002B45
:1019900000F0A9804A4B9B69494A43F001039361D7
:1019A000474B9B6903F00103BB60BB68454A7B6AF8
:1019B0009B08023352F82330FB607B6A03F0030379
:1019C0009B000F2202FA03F3DB43FA681340FB602B
:1019D0007B683D4A93420DD07B683C4A934207D0D6
:1019E0007B683B4A934201D1022304E0032302E0D7
:1019F000012300E000237A6A02F003029200934080
:101A0000FA681343FB602F497B6A9B080233FA682C
:101A100041F823203B685B6803F48033002B06D039
:101A20002C4B1A682B49BB6913430B6006E0294B0A
:101A30001A68BB69DB43274913400B603B685B684E
:101A400003F40033002B06D0224B5A682149BB69AE
:101A500013434B6006E01F4B5A68BB69DB431D49CB
:101A600013404B603B685B6803F48013002B06D087
:101A7000184B9A681749BB6913438B6006E0154BF6
:101A80009A68BB69DB43134913408B603B685B6812
:101A900003F40013002B1FD00E4BDA680D49BB690D
:101AA0001343CB601FE000BF000032100000311074
:101AB0000000221000002110000012100000111080
:101AC000001002400000014000080140000C0140ED
:101AD00000100140000401400B4BDA68BB69DB4396
:101AE00009491340CB607B6A01337B623B681A680B
:101AF0007B6A22FA03F3002B7FF496AE00BF00BF8F
:101B00002C37BD4680BC70470004014080B483B0D0
:101B100000AF78600B467B8013467B707B78002B90
:101B200003D07A887B681A6103E07B881A047B689B
:101B30001A6100BF0C37BD4680BC704780B586B0C7
:101B400000AF78607B68002B01D1012372E27B68D3
:101B50001B6803F00103002B00F08780924B5B6849
:101B600003F00C03042B0CD08F4B5B6803F00C03C9
:101B7000082B12D18C4B5B6803F48033B3F5803FA4
:101B80000BD1894B1B6803F40033002B6CD07B68AE
:101B90005B68002B68D101234CE27B685B68B3F57E
:101BA000803F06D1804B1B687F4A43F4803313602B
:101BB0002EE07B685B68002B0CD17B4B1B687A4A5C
:101BC00023F480331360784B1B68774A23F4802317
:101BD00013601DE07B685B68B3F5A02F0CD1724BDE
:101BE0001B68714A43F4802313606F4B1B686E4A75
:101BF00043F4803313600BE06B4B1B686A4A23F499
:101C000080331360684B1B68674A23F4802313609A
:101C10007B685B68002B13D0FFF774FA386108E02B
:101C2000FFF770FA02463B69D31A642B01D90323EC
:101C300000E25D4B1B6803F40033002BF0D014E08E
:101C4000FFF760FA386108E0FFF75CFA02463B698B
:101C5000D31A642B01D90323ECE1534B1B6803F423
:101C60000033002BF0D100E000BF7B681B6803F05D
:101C70000203002B63D04C4B5B6803F00C03002B7A
:101C80000BD0494B5B6803F00C03082B1CD1464B6F
:101C90005B6803F48033002B16D1434B1B6803F0C1
:101CA0000203002B05D07B681B69012B01D00123A7
:101CB000C0E13D4B1B6823F0F8027B685B69DB00E9
:101CC000394913430B603AE07B681B69002B20D035
:101CD000364B01221A60FFF715FA386108E0FFF76A
:101CE00011FA02463B69D31A022B01D90323A1E161
:101CF0002D4B1B6803F00203002BF0D02A4B1B680E
:101D000023F0F8027B685B69DB00274913430B6013
:101D100015E0264B00221A60FFF7F4F9386108E05D
:101D2000FFF7F0F902463B69D31A022B01D90323CE
:101D300080E11D4B1B6803F00203002BF0D17B6890
:101D40001B6803F00803002B3AD07B689B69002BCB
:101D500019D0174B01221A60FFF7D4F9386108E057
:101D6000FFF7D0F902463B69D31A022B01D90323AE
:101D700060E10D4B5B6A03F00203002BF0D0012001
:101D800000F008FB1CE00A4B00221A60FFF7BAF9CA
:101D900038610FE0FFF7B6F902463B69D31A022B10
:101DA00008D9032346E100BF001002400000424270
:101DB00080044242924B5B6A03F00203002BE9D19C
:101DC0007B681B6803F00403002B00F0A68000234F
:101DD000FB758B4BDB6903F08053002B0DD1884BD7
:101DE000DB69874A43F08053D361854BDB6903F09D
:101DF0008053BB60BB680123FB75824B1B6803F4F7
:101E00008073002B18D17F4B1B687E4A43F480738C
:101E10001360FFF777F9386108E0FFF773F90246BE
:101E20003B69D31A642B01D9032303E1754B1B686B
:101E300003F48073002BF0D07B68DB68012B06D1A4
:101E40006F4B1B6A6E4A43F0010313622DE07B68FF
:101E5000DB68002B0CD16A4B1B6A694A23F0010333
:101E60001362674B1B6A664A23F0040313621CE08B
:101E70007B68DB68052B0CD1614B1B6A604A43F021
:101E8000040313625E4B1B6A5D4A43F00103136255
:101E90000BE05B4B1B6A5A4A23F001031362584B59
:101EA0001B6A574A23F0040313627B68DB68002B2C
:101EB00015D0FFF727F938610AE0FFF723F902464A
:101EC0003B69D31A41F28832934201D90323B1E02E
:101ED0004B4B1B6A03F00203002BEED014E0FFF71C
:101EE00011F938610AE0FFF70DF902463B69D31A90
:101EF00041F28832934201D903239BE0404B1B6A95
:101F000003F00203002BEED1FB7D012B05D13C4BEE
:101F1000DB693B4A23F08053D3617B68DB69002B8C
:101F200000F08780364B5B6803F00C03082B61D010
:101F30007B68DB69022B46D1334B00221A60FFF726
:101F4000E1F8386108E0FFF7DDF802463B69D31A93
:101F5000022B01D903236DE0294B1B6803F00073AA
:101F6000002BF0D17B681B6AB3F5803F08D1244B6E
:101F70005B6823F400327B689B68214913434B6004
:101F80001F4B5B6823F474127B68196A7B685B6A79
:101F90000B431B4913434B601B4B01221A60FFF795
:101FA000B1F8386108E0FFF7ADF802463B69D31A93
:101FB000022B01D903233DE0114B1B6803F0007392
:101FC000002BF0D035E0104B00221A60FFF79AF892
:101FD000386108E0FFF796F802463B69D31A022BF6
:101FE00001D9032326E0064B1B6803F00073002B86
:101FF000F0D11EE07B68DB69012B07D1012319E0DA
:102000000010024000700040600042420B4B5B68D1
:10201000FB60FB6803F480327B681B6A9A4206D13E
:10202000FB6803F470127B685B6A9A4201D001235B
:1020300000E0002318461837BD4680BD001002405E
:1020400080B584B000AF786039607B68002B01D127
:102050000123D0E06A4B1B6803F007033A689A42F9
:1020600010D9674B1B6823F0070265493B6813438F
:102070000B60634B1B6803F007033A689A4201D078
:102080000123B8E07B681B6803F00203002B20D01B
:102090007B681B6803F00403002B05D0594B5B6879
:1020A000584A43F4E06353607B681B6803F00803FD
:1020B000002B05D0534B5B68524A43F46053536086
:1020C000504B5B6823F0F0027B689B684D491343DB
:1020D0004B607B681B6803F00103002B40D07B68DA
:1020E0005B68012B07D1474B1B6803F40033002BBF
:1020F00015D101237FE07B685B68022B07D1414B40
:102100001B6803F00073002B09D1012373E03D4BE2
:102110001B6803F00203002B01D101236BE0394B54
:102120005B6823F003027B685B68364913434B60AE
:10213000FEF7E8FFF8600AE0FEF7E4FF0246FB68FE
:10214000D31A41F28832934201D9032353E02D4B35
:102150005B6803F00C027B685B689B009A42EBD1E2
:10216000274B1B6803F007033A689A4210D2244BAE
:102170001B6823F0070222493B6813430B60204B86
:102180001B6803F007033A689A4201D0012332E04A
:102190007B681B6803F00403002B08D0194B5B68B5
:1021A00023F4E0627B68DB68164913434B607B686D
:1021B0001B6803F00803002B09D0124B5B6823F463
:1021C00060527B681B69DB000E4913434B6000F0D3
:1021D00021F802460B4B5B681B0903F00F030A4909
:1021E000CB5C22FA03F3094A1360094B1B681846BB
:1021F000FEF782FA002318461037BD4680BD00BFA7
:102200000020024000100240D854000800000020C6
:102210000400002090B48AB000AF294B3C1D0FCBC6
:1022200084E80F0040F201233B800023FB61002380
:10223000BB6100237B6200237B6100233B62214B57
:102240005B68FB61FB6903F00C03042B02D0082BD5
:1022500003D02BE01C4B3B622BE0FB699B0C03F093
:102260000F0328333B4413F8243C7B61FB6903F4E0
:102270008033002B12D0134B5B685B0C03F001031F
:1022800028333B4413F8283CBB617B690E4A03FBAF
:1022900002F2BB69B2FBF3F37B6204E07B690B4A99
:1022A00002FB03F37B627B6A3B6202E0064B3B620C
:1022B00000BF3B6A18462837BD4690BC704700BF38
:1022C000C05400080010024000127A0000093D00CE
:1022D00080B400AF024B1B681846BD4680BC7047F7
:1022E0000000002080B500AFFFF7F2FF0246054B6B
:1022F0005B681B0A03F007030349CB5C22FA03F374
:10230000184680BD00100240E854000880B500AFB8
:10231000FFF7DEFF0246054B5B68DB0A03F00703AD
:102320000349CB5C22FA03F3184680BD001002403B
:10233000E854000880B483B000AF786039607B68EF
:102340000F221A60114B5B6803F003027B685A602E
:102350000E4B5B6803F0F0027B689A600B4B5B6886
:1023600003F4E0627B68DA60084B5B68DB0803F427
:10237000E0627B681A61064B1B6803F007023B684A
:102380001A6000BF0C37BD4680BC70470010024089
:102390000020024080B485B000AF78600A4B1B6813
:1023A0000A4AA2FB03235B0A7A6802FB03F3FB6081
:1023B00000BFFB685A1EFA60002BF9D100BF00BFB6
:1023C0001437BD4680BC704700000020D34D62101A
:1023D00080B582B000AF78607B68002B01D101230B
:1023E00041E07B6893F83D30DBB2002B06D17B687F
:1023F000002283F83C207868FEF794FB7B68022279
:1024000083F83D207B681A687B68043319461046C0
:1024100000F0ACFE7B68012283F846207B68012235
:1024200083F83E207B68012283F83F207B680122ED
:1024300083F840207B68012283F841207B680122D9
:1024400083F842207B68012283F843207B680122C5
:1024500083F844207B68012283F845207B680122B1
:1024600083F83D20002318460837BD4680BD000094
:1024700080B485B000AF78607B6893F83D30DBB204
:10248000012B01D0012335E07B68022283F83D2037
:102490007B681B68DA687B681B6842F00102DA60BF
:1024A0007B681B68164A934209D07B681B68B3F1AE
:1024B000804F04D07B681B68124A934211D17B681D
:1024C0001B689B6803F00703FB60FB68062B10D0BA
:1024D0007B681B681A687B681B6842F001021A60FF
:1024E00007E07B681B681A687B681B6842F0010282
:1024F0001A60002318461437BD4680BC704700BFE1
:10250000002C01400004004080B582B000AF78602C
:102510007B68002B01D1012341E07B6893F83D30BB
:10252000DBB2002B06D17B68002283F83C20786860
:1025300000F039F87B68022283F83D207B681A6836
:102540007B6804331946104600F010FE7B680122B8
:1025500083F846207B68012283F83E207B680122B5
:1025600083F83F207B68012283F840207B680122AA
:1025700083F841207B68012283F842207B68012296
:1025800083F843207B68012283F844207B68012282
:1025900083F845207B68012283F83D2000231846FC
:1025A0000837BD4680BD80B483B000AF786000BFFF
:1025B0000C37BD4680BC704780B586B000AFF86070
:1025C000B9607A607B80BB68002B09D1FB6893F807
:1025D0003E30DBB2022B0CBF01230023DBB222E032
:1025E000BB68042B09D1FB6893F83F30DBB2022BA8
:1025F0000CBF01230023DBB215E0BB68082B09D117
:10260000FB6893F84030DBB2022B0CBF01230023A0
:10261000DBB208E0FB6893F84130DBB2022B0CBF61
:1026200001230023DBB2002B01D0022349E1BB6868
:10263000002B09D1FB6893F83E30DBB2012B0CBFB5
:1026400001230023DBB222E0BB68042B09D1FB6825
:1026500093F83F30DBB2012B0CBF01230023DBB228
:1026600015E0BB68082B09D1FB6893F84030DBB25A
:10267000012B0CBF01230023DBB208E0FB6893F8B9
:102680004130DBB2012B0CBF01230023DBB2002B56
:1026900024D07B68002B04D17B88002B01D0012340
:1026A0000FE1BB68002B04D1FB68022283F83E20B7
:1026B00016E0BB68042B04D1FB68022283F83F209C
:1026C0000EE0BB68082B04D1FB68022283F840208F
:1026D00006E0FB68022283F8412001E00123F0E0DC
:1026E000BB680C2B00F2AE8001A252F823F000BFB1
:1026F0002527000845280008452800084528000827
:102700006D270008452800084528000845280008CE
:10271000B527000845280008452800084528000876
:10272000FD270008FB685B6A684A9A62FB685B6A7F
:10273000674ADA62FB685B6A664A1A63FB68586A32
:102740007968FB681B6834331A467B88FEF71EFEE7
:102750000346002B01D00123B3E0FB681B68DA6855
:10276000FB681B6842F40072DA606CE0FB689B6AED
:10277000564A9A62FB689B6A554ADA62FB689B6A12
:10278000544A1A63FB68986A7968FB681B68383397
:102790001A467B88FEF7FAFD0346002B01D0012381
:1027A0008FE0FB681B68DA68FB681B6842F4806294
:1027B000DA6048E0FB68DB6A444A9A62FB68DB6ADD
:1027C000434ADA62FB68DB6A424A1A63FB68D86AEA
:1027D0007968FB681B683C331A467B88FEF7D6FD98
:1027E0000346002B01D001236BE0FB681B68DA680D
:1027F000FB681B6842F40062DA6024E0FB681B6B34
:10280000324A9A62FB681B6B314ADA62FB681B6BC7
:10281000304A1A63FB68186B7968FB681B684033A1
:102820001A467B88FEF7B2FD0346002B01D0012338
:1028300047E0FB681B68DA68FB681B6842F480525B
:10284000DA6000E000BFFB681B680122B968184627
:1028500000F002FFFB681B681F4A934207D1FB6828
:102860001B685A6CFB681B6842F400425A64FB68A0
:102870001B68194A934209D0FB681B68B3F1804F6B
:1028800004D0FB681B68154A934211D1FB681B6892
:102890009B6803F007037B617B69062B10D0FB6804
:1028A0001B681A68FB681B6842F001021A6007E0A7
:1028B000FB681B681A68FB681B6842F001021A601B
:1028C000002318461837BD4680BD00BF5D300008A4
:1028D00005310008CB2F0008002C01400004004007
:1028E00080B582B000AF786039603B680C2B55D85A
:1028F00001A252F823F000BF2D2900089D290008ED
:102900009D2900089D290008492900089D290008E3
:102910009D2900089D290008652900089D290008B7
:102920009D2900089D290008812900087B681B68F3
:10293000DA687B681B6822F40072DA607B685B6A85
:102940001846FEF7BDFD2AE07B681B68DA687B68E5
:102950001B6822F48062DA607B689B6A1846FEF787
:10296000AFFD1CE07B681B68DA687B681B6822F49B
:102970000062DA607B68DB6A1846FEF7A1FD0EE0B4
:102980007B681B68DA687B681B6822F48052DA6017
:102990007B681B6B1846FEF793FD00E000BF7B6869
:1029A0001B6800223968184600F056FE7B681B68D9
:1029B000294A934217D17B681B681A6A41F21113A6
:1029C0001340002B0FD17B681B681A6A40F2444306
:1029D0001340002B07D17B681B685A6C7B681B680F
:1029E00022F400425A647B681B681A6A41F2111390
:1029F0001340002B0FD17B681B681A6A40F24443D6
:102A00001340002B07D17B681B681A687B681B6822
:102A100022F001021A603B68002B04D17B6801227E
:102A200083F83E2013E03B68042B04D17B6801222D
:102A300083F83F200BE03B68082B04D17B68012220
:102A400083F8402003E07B68012283F841200023C3
:102A500018460837BD4680BD002C014080B582B0C5
:102A600000AF78607B681B681B6903F00203022BD0
:102A700022D17B681B68DB6803F00203022B1BD1A9
:102A80007B681B686FF002021A617B6801221A776B
:102A90007B681B689B6903F00303002B03D07868F5
:102AA00000F06FFA05E0786800F062FA7868FDF7E8
:102AB0004FFD7B6800221A777B681B681B6903F057
:102AC0000403042B22D17B681B68DB6803F004033A
:102AD000042B1BD17B681B686FF004021A617B68B2
:102AE00002221A777B681B689B6903F44073002BF2
:102AF00003D0786800F045FA05E0786800F038FA0D
:102B00007868FDF725FD7B6800221A777B681B68D3
:102B10001B6903F00803082B22D17B681B68DB6864
:102B200003F00803082B1BD17B681B686FF00802B9
:102B30001A617B6804221A777B681B68DB6903F0E3
:102B40000303002B03D0786800F01BFA05E07868D7
:102B500000F00EFA7868FDF7FBFC7B6800221A771C
:102B60007B681B681B6903F01003102B22D17B6864
:102B70001B68DB6803F01003102B1BD17B681B68FC
:102B80006FF010021A617B6808221A777B681B6855
:102B9000DB6903F44073002B03D0786800F0F1F98F
:102BA00005E0786800F0E4F97868FDF7D1FC7B680F
:102BB00000221A777B681B681B6903F00103012B55
:102BC0000ED17B681B68DB6803F00103012B07D182
:102BD0007B681B686FF001021A617868FDF7C6FC1C
:102BE0007B681B681B6903F08003802B0ED17B6818
:102BF0001B68DB6803F08003802B07D17B681B68B0
:102C00006FF080021A61786800F0ABFD7B681B688A
:102C10001B6903F04003402B0ED17B681B68DB6807
:102C200003F04003402B07D17B681B686FF0400224
:102C30001A61786800F0B7F97B681B681B6903F0BC
:102C40002003202B0ED17B681B68DB6803F0200378
:102C5000202B07D17B681B686FF020021A6178680F
:102C600000F076FD00BF0837BD4680BD80B584B05A
:102C700000AFF860B9607A60FB6893F83C30012BD4
:102C800001D10223ACE0FB68012283F83C207B6881
:102C90000C2B00F29F8001A252F823F0D12C0008E7
:102CA000D52D0008D52D0008D52D0008112D0008C0
:102CB000D52D0008D52D0008D52D0008532D00086E
:102CC000D52D0008D52D0008D52D0008932D00081E
:102CD000FB681B68B968184600F0A0FAFB681B681F
:102CE0009A69FB681B6842F008029A61FB681B68DE
:102CF0009A69FB681B6822F004029A61FB681B68F2
:102D00009969BB681A69FB681B680A439A6162E0AB
:102D1000FB681B68B968184600F0E6FAFB681B6898
:102D20009A69FB681B6842F400629A61FB681B6841
:102D30009A69FB681B6822F480629A61FB681B68D1
:102D40009969BB681B691A02FB681B680A439A6190
:102D500041E0FB681B68B968184600F02FFBFB6870
:102D60001B68DA69FB681B6842F00802DA61FB68DD
:102D70001B68DA69FB681B6822F00402DA61FB68F1
:102D80001B68D969BB681A69FB681B680A43DA616A
:102D900021E0FB681B68B968184600F079FBFB6806
:102DA0001B68DA69FB681B6842F40062DA61FB6841
:102DB0001B68DA69FB681B6822F48062DA61FB68D1
:102DC0001B68D969BB681B691A02FB681B680A4348
:102DD000DA6100E000BFFB68002283F83C2000239A
:102DE00018461037BD4680BD80B584B000AF78600E
:102DF00039607B6893F83C30012B01D10223B3E0AA
:102E00007B68012283F83C207B68022283F83D2006
:102E10007B681B689B68FB60FB6823F07703FB60A3
:102E2000FB6823F47F43FB607B681B68FA689A6049
:102E30003B681B68B3F5005F3ED0B3F5005F00F25E
:102E40008780B3F5805F00F08580B3F5805F7FD821
:102E5000702B1AD0702B7BD8602B50D0602B77D87A
:102E6000502B3CD0502B73D8402B58D0402B6FD8D0
:102E7000302B64D0302B6BD8202B60D0202B67D820
:102E8000002B5CD0102B5AD062E07B6818683B683E
:102E900099683B685A683B68DB6800F0BEFB7B685A
:102EA0001B689B68FB60FB6843F07703FB607B68F3
:102EB0001B68FA689A604EE07B6818683B689968FE
:102EC0003B685A683B68DB6800F0A7FB7B681B68BF
:102ED0009A687B681B6842F480429A603BE07B689A
:102EE00018683B6859683B68DB681A4600F01EFBAF
:102EF0007B681B685021184600F075FB2BE07B684F
:102F000018683B6859683B68DB681A4600F03CFB70
:102F10007B681B686021184600F065FB1BE07B683E
:102F200018683B6859683B68DB681A4600F0FEFA8F
:102F30007B681B684021184600F055FB0BE07B685E
:102F40001A683B681B681946104600F04CFB02E00B
:102F500000BF00E000BF7B68012283F83D207B6852
:102F6000002283F83C20002318461037BD4680BD60
:102F700080B483B000AF786000BF0C37BD4680BC22
:102F8000704780B483B000AF786000BF0C37BD4697
:102F900080BC704780B483B000AF786000BF0C374E
:102FA000BD4680BC704780B483B000AF786000BF7E
:102FB0000C37BD4680BC704780B483B000AF7860EA
:102FC00000BF0C37BD4680BC704780B584B000AFF1
:102FD00078607B685B6AFB60FB685B6A7A689A4230
:102FE00007D1FB6801221A77FB68012283F83E2093
:102FF0002AE0FB689B6A7A689A4207D1FB68022242
:103000001A77FB68012283F83F201DE0FB68DB6A2A
:103010007A689A4207D1FB6804221A77FB6801227A
:1030200083F8402010E0FB681B6B7A689A4207D156
:10303000FB6808221A77FB68012283F8412003E02D
:10304000FB68012283F83D20F868FFF7B5FFFB68B5
:1030500000221A7700BF1037BD4680BD80B584B00E
:1030600000AF78607B685B6AFB60FB685B6A7A68CC
:103070009A420BD1FB6801221A777B689B69002B6F
:1030800036D1FB68012283F83E2031E0FB689B6A61
:103090007A689A420BD1FB6802221A777B689B6997
:1030A000002B25D1FB68012283F83F2020E0FB683C
:1030B000DB6A7A689A420BD1FB6804221A777B6834
:1030C0009B69002B14D1FB68012283F840200FE09C
:1030D000FB681B6B7A689A420AD1FB6808221A7750
:1030E0007B689B69002B03D1FB68012283F8412098
:1030F000F868FDF72DFAFB6800221A7700BF103739
:10310000BD4680BD80B584B000AF78607B685B6AE7
:10311000FB60FB685B6A7A689A4203D1FB68012214
:103120001A7719E0FB689B6A7A689A4203D1FB68B8
:1031300002221A7710E0FB68DB6A7A689A4203D1B0
:10314000FB6804221A7707E0FB681B6B7A689A42D7
:1031500002D1FB6808221A77F868FFF71BFFFB68AB
:1031600000221A7700BF1037BD4680BD80B485B0FD
:1031700000AF786039607B681B68FB607B68254A1C
:10318000934207D07B68B3F1804F03D07B68224A1B
:10319000934208D1FB6823F07003FB603B685B68D7
:1031A000FA681343FB607B681A4A934207D07B6836
:1031B000B3F1804F03D07B68174A934208D1FB6874
:1031C00023F44073FB603B68DB68FA681343FB60E1
:1031D000FB6823F080023B685B691343FB607B68FC
:1031E000FA681A603B689A687B68DA623B681A681A
:1031F0007B689A627B68074A934203D13B681A69ED
:103200007B681A637B6801225A6100BF1437BD4690
:1032100080BC7047002C01400004004080B487B09F
:1032200000AF786039607B681B6A23F001027B681D
:103230001A627B681B6A7B617B685B683B617B68A9
:103240009B69FB60FB6823F07003FB60FB6823F065
:103250000303FB603B681B68FA681343FB607B69F0
:1032600023F002037B613B689B687A6913437B61AF
:103270007B681C4A93420CD17B6923F008037B6175
:103280003B68DB687A6913437B617B6923F0040345
:103290007B617B68134A934211D13B6923F48073AD
:1032A0003B613B6923F400733B613B685B693A69AE
:1032B00013433B613B689B693A6913433B617B68FD
:1032C0003A695A607B68FA689A613B685A687B6819
:1032D0005A637B687A691A6200BF1C37BD4680BC9E
:1032E000704700BF002C014080B487B000AF786009
:1032F00039607B681B6A23F010027B681A627B6866
:103300001B6A7B617B685B683B617B689B69FB60D8
:10331000FB6823F4E043FB60FB6823F44073FB602D
:103320003B681B681B02FA681343FB607B6923F050
:1033300020037B613B689B681B017A6913437B61B7
:103340007B681D4A93420DD17B6923F080037B612A
:103350003B68DB681B017A6913437B617B6923F05F
:1033600040037B617B68144A934213D13B6923F489
:1033700080633B613B6923F400633B613B685B69AD
:103380009B003A6913433B613B689B699B003A6928
:1033900013433B617B683A695A607B68FA689A61BB
:1033A0003B685A687B689A637B687A691A6200BFD7
:1033B0001C37BD4680BC7047002C014080B487B0EC
:1033C00000AF786039607B681B6A23F480727B6889
:1033D0001A627B681B6A7B617B685B683B617B6808
:1033E000DB69FB60FB6823F07003FB60FB6823F084
:1033F0000303FB603B681B68FA681343FB607B694F
:1034000023F400737B613B689B681B027A6913435A
:103410007B617B681D4A93420DD17B6923F4006375
:103420007B613B68DB681B027A6913437B617B69C4
:1034300023F480637B617B68144A934213D13B6918
:1034400023F480533B613B6923F400533B613B68A9
:103450005B691B013A6913433B613B689B691B0134
:103460003A6913433B617B683A695A607B68FA6842
:10347000DA613B685A687B68DA637B687A691A624A
:1034800000BF1C37BD4680BC704700BF002C014008
:1034900080B487B000AF786039607B681B6A23F422
:1034A00080527B681A627B681B6A3B617B685B6841
:1034B0007B617B68DB69FB60FB6823F4E043FB60B6
:1034C000FB6823F44073FB603B681B681B02FA68CF
:1034D0001343FB603B6923F400533B613B689B68EB
:1034E0001B033A6913433B617B680F4A934209D13E
:1034F0007B6923F480437B613B685B699B017A694C
:1035000013437B617B687A695A607B68FA68DA6189
:103510003B685A687B681A647B683A691A6200BF24
:103520001C37BD4680BC7047002C014080B487B07A
:1035300000AFF860B9607A60FB681B6A7B61FB686A
:103540001B6A23F00102FB681A62FB689B693B61FE
:103550003B6923F0F0033B617B681B013A6913432D
:103560003B617B6923F00A037B617A69BB68134383
:103570007B61FB683A699A61FB687A691A6200BFED
:103580001C37BD4680BC704780B487B000AFF86080
:10359000B9607A60FB681B6A23F01002FB681A624C
:1035A000FB689B697B61FB681B6A3B617B6923F459
:1035B00070437B617B681B037A6913437B613B69C2
:1035C00023F0A0033B61BB681B013A6913433B61D5
:1035D000FB687A699A61FB683A691A6200BF1C3716
:1035E000BD4680BC704780B485B000AF786039605C
:1035F0007B689B68FB60FB6823F07003FB603A68A4
:10360000FB68134343F00703FB607B68FA689A602A
:1036100000BF1437BD4680BC704780B487B000AF90
:10362000F860B9607A603B60FB689B687B617B698E
:1036300023F47F437B613B681A027B681A43BB68B3
:1036400013437A6913437B61FB687A699A6000BF10
:103650001C37BD4680BC704780B487B000AFF860AF
:10366000B9607A60BB6803F01F03012202FA03F31A
:103670007B61FB681A6A7B69DB431A40FB681A624C
:10368000FB681A6ABB6803F01F03796801FA03F349
:103690001A43FB681A6200BF1C37BD4680BC7047E6
:1036A00080B485B000AF786039607B6893F83C30B7
:1036B000012B01D1022341E07B68012283F83C20E9
:1036C0007B68022283F83D207B681B685B68FB6097
:1036D0007B681B689B68BB60FB6823F07003FB6022
:1036E0003B681B68FA681343FB607B681B68FA68D9
:1036F0005A607B681B68144A934209D07B681B6838
:10370000B3F1804F04D07B681B68104A93420CD100
:10371000BB6823F08003BB603B685B68BA681343F7
:10372000BB607B681B68BA689A607B68012283F87B
:103730003D207B68002283F83C2000231846143784
:10374000BD4680BC704700BF002C01400004004013
:1037500080B483B000AF786000BF0C37BD4680BC3A
:10376000704780B483B000AF786000BF0C37BD46AF
:1037700080BC704780B582B000AF78607B68002B5A
:1037800001D101233FE07B6893F83D30DBB2002B91
:1037900006D17B68002283F83C207868FDF7C8FAE0
:1037A0007B68242283F83D207B681B68DA687B688D
:1037B0001B6822F40052DA60786800F0B9FB7B687D
:1037C0001B681A697B681B6822F490421A617B6847
:1037D0001B685A697B681B6822F02A025A617B6861
:1037E0001B68DA687B681B6842F40052DA607B6809
:1037F00000221A647B68202283F83D207B68202207
:1038000083F83E20002318460837BD4680BD80B5AA
:1038100084B000AF78600023FB607B681B685B6945
:1038200003F08003002B14BF01230023DBB2FB60F5
:103830007B6893F83D30DBB2212B16D1FB68002B5F
:1038400013D07B681B685A697B681B6822F0800272
:103850005A617B685B6B002B04D07B685B6B1846FE
:10386000FDF7F3FD786800F0FDF97B681B685B6984
:1038700003F04003002B14BF01230023DBB2FB60E5
:103880007B6893F83E30DBB2222B16D1FB68002B0D
:1038900013D07B681B685A697B681B6822F0400262
:1038A0005A617B689B6B002B04D07B689B6B18462E
:1038B000FDF7CBFD786800F0EAF9002318461037D1
:1038C000BD4680BD80B58AB000AF78607B681B685C
:1038D0001B687B627B681B68DB683B627B681B68DC
:1038E0005B69FB610023BB6100237B617B6A03F0A2
:1038F0000F03BB61BB69002B0DD17B6A03F0200372
:10390000002B08D03B6A03F02003002B03D078681B
:1039100000F064FA7BE1BB69002B00F0B180FB6929
:1039200003F00103002B05D13B6A03F49073002BD5
:1039300000F0A6807B6A03F00103002B0AD03B6AEB
:1039400003F48073002B05D07B681B6C43F00102ED
:103950007B681A647B6A03F00403002B0AD0FB69BE
:1039600003F00103002B05D07B681B6C43F00202BF
:103970007B681A647B6A03F00203002B0AD0FB69A0
:1039800003F00103002B05D07B681B6C43F004029D
:103990007B681A647B6A03F00803002B0FD03B6A34
:1039A00003F02003002B04D1FB6903F00103002B7B
:1039B00005D07B681B6C43F008027B681A647B6847
:1039C0001B6C002B00F01E817B6A03F02003002B90
:1039D00007D03B6A03F02003002B02D0786800F088
:1039E000FDF97B681B685B6903F04003002B14BF83
:1039F00001230023DBB27B617B681B6C03F00803AF
:103A0000002B02D17B69002B31D0786800F03FF9A0
:103A10007B681B685B6903F04003002B23D07B6845
:103A20001B685A697B681B6822F040025A617B68F8
:103A30009B6B002B13D07B689B6B764A5A637B6829
:103A40009B6B1846FDF73CFD0346002B16D07B68A8
:103A50009B6B5B6B7A68926B104698470EE07868B8
:103A600000F0ECF80AE0786800F0E8F806E0786822
:103A700000F0E4F87B6800221A64C3E000BFC1E0F4
:103A80007B681B6B012B40F0A1807B6A03F0100365
:103A9000002B00F09B803B6A03F01003002B00F02A
:103AA00095800023FB607B681B681B68FB607B685C
:103AB0001B685B68FB60FB687B681B685B6903F0E5
:103AC0004003002B4ED07B689B6B1B685B683B827E
:103AD0003B8A002B00F098807B689B8D3A8A9A4243
:103AE00080F092807B683A8ADA857B689B6B9B6961
:103AF000202B2BD07B681B68DA687B681B6822F45C
:103B00008072DA607B681B685A697B681B6822F0E8
:103B100001025A617B681B685A697B681B6822F046
:103B200040025A617B68202283F83E207B68002295
:103B30001A637B681B68DA687B681B6822F01002D6
:103B4000DA607B689B6B1846FDF77FFC7B689A8D7B
:103B50007B68DB8D9BB2D31A9BB21946786800F064
:103B600076F851E07B689A8D7B68DB8D9BB2D31A27
:103B70007B827B68DB8D9BB2002B47D07B8A002B3E
:103B800044D07B681B68DA687B681B6822F49072FB
:103B9000DA607B681B685A697B681B6822F0010247
:103BA0005A617B68202283F83E207B6800221A63DA
:103BB0007B681B68DA687B681B6822F01002DA6099
:103BC0007B8A1946786800F042F81FE07B6A03F0B0
:103BD0008003002B08D03B6A03F08003002B03D046
:103BE000786800F094F812E07B6A03F04003002B41
:103BF0000DD03B6A03F04003002B08D0786800F03A
:103C0000D5F804E000BF02E000BF00E000BF2837A5
:103C1000BD4680BDE73C000880B483B000AF78604B
:103C200000BF0C37BD4680BC704780B483B000AF86
:103C3000786000BF0C37BD4680BC704780B483B04D
:103C400000AF786000BF0C37BD4680BC704780B4C1
:103C500083B000AF78600B467B8000BF0C37BD4659
:103C600080BC704780B483B000AF78607B681B680D
:103C7000DA687B681B6822F0C002DA607B68202269
:103C800083F83D2000BF0C37BD4680BC704780B430
:103C900083B000AF78607B681B68DA687B681B685C
:103CA00022F49072DA607B681B685A697B681B6833
:103CB00022F001025A617B681B6B012B07D17B68E4
:103CC0001B68DA687B681B6822F01002DA607B6888
:103CD000202283F83E207B6800221A6300BF0C3745
:103CE000BD4680BC704780B584B000AF78607B680B
:103CF0005B6AFB60FB680022DA85FB680022DA84DD
:103D0000F868FFF79BFF00BF1037BD4680BD80B449
:103D100085B000AF78607B6893F83D30DBB2212B33
:103D20003ED17B689B68B3F5805F14D17B681B69CB
:103D3000002B10D17B681B6AFB60FB681B881A464E
:103D40007B681B68C2F308025A607B681B6A9A1C76
:103D50007B681A6208E07B681B6A591C7A681162EA
:103D60001A787B681B685A607B68DB8C9BB2013BCE
:103D70009BB27A681946D184002B0FD17B681B68EF
:103D8000DA687B681B6822F08002DA607B681B6857
:103D9000DA687B681B6842F04002DA60002300E0CA
:103DA000022318461437BD4680BC704780B582B0E8
:103DB00000AF78607B681B68DA687B681B6822F05C
:103DC0004002DA607B68202283F83D207868FFF7A4
:103DD00023FF002318460837BD4680BD80B586B056
:103DE00000AF78607B6893F83E30DBB2222B40F066
:103DF00099807B689B68B3F5805F17D17B681B69EE
:103E0000002B13D100237B617B689B6A3B617B683D
:103E10001B685B689BB2C3F308039AB23B691A80C4
:103E20007B689B6A9A1C7B689A6226E07B689B6A27
:103E30007B6100233B617B689B68B3F5805F07D0A3
:103E40007B689B68002B0AD17B681B69002B06D11D
:103E50007B681B685B68DAB27B691A7008E07B6874
:103E60001B685B68DBB203F07F03DAB27B691A7010
:103E70007B689B6A5A1C7B689A627B68DB8D9BB26D
:103E8000013B9BB27A681946D185002B48D17B68EB
:103E90001B68DA687B681B6822F02002DA607B68A6
:103EA0001B68DA687B681B6822F48072DA607B68C2
:103EB0001B685A697B681B6822F001025A617B68A3
:103EC000202283F83E207B681B6B012B23D17B686B
:103ED00000221A637B681B68DA687B681B6822F023
:103EE0001002DA607B681B681B6803F01003102B5C
:103EF0000AD10023FB607B681B681B68FB607B6842
:103F00001B685B68FB60FB687B689B8D1946786863
:103F1000FFF79DFE02E07868FFF787FE002302E0CE
:103F2000002300E0022318461837BD4680BD00007C
:103F300080B584B000AF78607B681B681B6923F490
:103F400040517B68DA687B681B680A431A617B68AA
:103F50009A687B681B691A437B685B691343BB6083
:103F60007B681B68DB6823F4B05323F00C037A688A
:103F70001268B9680B43D3607B681B685B6923F4E4
:103F800040717B689A697B681B680A435A617B6849
:103F90001B682C4A934203D1FEF7B8F9F86002E09F
:103FA000FEF7A0F9F860FA6813469B0013449A00E4
:103FB0001A447B685B689B00B2FBF3F3224AA2FBC6
:103FC00003235B091901FA6813469B0013449A0006
:103FD0001A447B685B689B00B2FBF3F21A4BA3FBAD
:103FE00002035B09642000FB03F3D31A1B01323385
:103FF000154AA2FB03235B0903F0F0031944FA6896
:1040000013469B0013449A001A447B685B689B002C
:10401000B2FBF3F20C4BA3FB02035B09642000FB31
:1040200003F3D31A1B013233074AA2FB03235B09B4
:1040300003F00F027B681B680A449A6000BF1037C8
:10404000BD4680BD003801401F85EB5180B485B06E
:1040500000AF0346FB800023FB60B7F90630842BDA
:1040600005D0B7F90620FB6813440333FB60FB68F7
:1040700018461437BD4680BC704780B500AF00F0CD
:10408000D1FA0023184680BDF0B589B004AF78603E
:1040900039607B685B69002B20D07B689B69002BB3
:1040A0001CD07B685C687B681D687B681E697B68C8
:1040B000B3F908301846FFF7C9FF01467B685B6912
:1040C0007A6892690292019300913B6832462946D0
:1040D000204600F0E8F80346FB601CE07B685C6863
:1040E0007B681D687B681B699EB27B68B3F90830EA
:1040F0001846FFF7ABFF024607F10C03019300924D
:104100003B6832462946204600F029F90346012B38
:1041100001D0002300E0FB6818461437BD46F0BD0F
:1041200080B584B000AF78607B68FB60FB68002BD3
:1041300001D0FB6800E00123184600F03FFA00239D
:1041400018461037BD4680BD80B483B000AF78609C
:104150007B6803F108027B685A607B684FF0FF328E
:104160009A607B6803F108027B68DA607B6803F180
:1041700008027B681A617B6800221A6000BF0C3756
:10418000BD4680BC704780B483B000AF78607B6868
:1041900000221A6100BF0C37BD4680BC704780B456
:1041A00085B000AF786039607B685B68FB603B6816
:1041B000FA685A60FB689A683B689A60FB689B687B
:1041C0003A685A60FB683A689A603B687A681A6194
:1041D0007B681B685A1C7B681A6000BF1437BD4699
:1041E00080BC704780B485B000AF786039603B68B0
:1041F0001B68BB60BB68B3F1FF3F03D17B681B69E1
:10420000FB600CE07B680833FB6002E0FB685B68E6
:10421000FB60FB685B681B68BA689A42F6D2FB6871
:104220005A683B685A603B685B683A689A603B68CA
:10423000FA689A60FB683A685A603B687A681A6163
:104240007B681B685A1C7B681A6000BF1437BD4628
:1042500080BC704780B485B000AF78607B681B6914
:10426000FB607B685B687A6892689A607B689B6891
:104270007A6852685A60FB685B687A689A4203D130
:104280007B689A68FB685A607B6800221A61FB6849
:104290001B685A1EFB681A60FB681B6818461437B7
:1042A000BD4680BC704780B58EB004AFF860B96081
:1042B0007A603B607B6B002B0AD14FF0500383F395
:1042C0001188BFF36F8FBFF34F8F3B6200BFFEE7D4
:1042D000BB6B002B0AD14FF0500383F31188BFF35F
:1042E0006F8FBFF34F8FFB6100BFFEE754233B612D
:1042F0003B69542B0AD04FF0500383F31188BFF36E
:104300006F8FBFF34F8FBB6100BFFEE7BB6B002B0E
:104310001ED07B6B002B1BD0BB6B7B627B6A7A6BE6
:104320001A637B6A022283F85120002303937B6A7D
:10433000029307F1140301933B6B00933B687A6887
:10434000B968F86800F050F8786A00F0CDF801E03C
:1043500000237B617B6918462837BD4680BD80B548
:104360008CB004AFF860B9603B601346FB80FB88FB
:104370009B00184600F06CFE78617B69002B0ED024
:10438000542000F065FEF861FB69002B03D0FB6947
:104390007A691A6305E0786900F01EFF01E00023E6
:1043A000FB61FB69002B17D0FB69002283F85120C9
:1043B000FA8800230393FB690293FB6A0193BB6AAB
:1043C00000933B68B968F86800F00EF8F86900F0EF
:1043D0008BF80123BB6102E04FF0FF33BB61BB6987
:1043E00018462037BD4680BD80B588B000AFF86064
:1043F000B9607A603B603B6B1A6B7B6803F180436A
:10440000013B9B001344BB61BB6923F00703BB6105
:10441000BB6903F00703002B0AD04FF0500383F36E
:104420001188BFF36F8FBFF34F8F7B6100BFFEE733
:104430000023FB6112E0BA68FB69134419783A6BF8
:10444000FB69134434330A461A70BA68FB69134493
:104450001B78002B06D0FB690133FB61FB690F2B36
:10446000E9D900E000BF3B6B002283F84320BB6A20
:10447000062B01D90623BB623B6BBA6ADA623B6B3F
:10448000BA6A5A643B6B00229A643B6B0433184649
:10449000FFF779FE3B6B18331846FFF774FE3B6B52
:1044A0003A6B1A61BB6AC3F107023B6B9A613B6BC3
:1044B0003A6B5A623B6B0022DA643B6B002283F852
:1044C00050203A68F968B86900F00EFC02463B6B70
:1044D0001A60FB6A002B02D0FB6A3A6B1A6000BFBD
:1044E0002037BD4680BD000080B582B000AF786047
:1044F00000F0ECFC2A4B1B680133294A1360294B5E
:104500001B68002B09D1274A7B681360244B1B686A
:10451000012B10D100F0C0FA0DE0234B1B68002BDB
:1045200009D1204B1B68DA6A7B68DB6A9A4202D8A1
:104530001C4A7B6813601D4B1B6801331B4A1360C8
:104540007B68DB6A01229A40194B1B681343184AA7
:1045500013607B68DA6A13469B0013449B00154A7C
:104560001A447B68043319461046FFF718FE00F022
:10457000DDFC0D4B1B68002B0ED00A4B1B68DA6A62
:104580007B68DB6A9A4207D20B4B4FF080521A606D
:10459000BFF34F8FBFF36F8F00BF0837BD4680BD9D
:1045A00000100020000F00200C1000201C10002024
:1045B00008100020040F002004ED00E080B584B056
:1045C00000AF78600023FB607B68002B17D0134B93
:1045D0001B68002B0AD04FF0500383F31188BFF300
:1045E0006F8FBFF34F8FBB6000BFFEE700F07AF81C
:1045F0000021786800F012FB00F082F8F860FB6898
:10460000002B07D1064B4FF080521A60BFF34F8F3B
:10461000BFF36F8F00BF1037BD4680BD281000204C
:1046200004ED00E080B58AB004AF0023BB60002336
:104630007B603A46391D07F108031846FBF7B6FDC3
:1046400039687B68BA6802920193002300930023C3
:104650000A461E491E48FFF726FE03461D4A136000
:104660001C4B1B68002B02D001237B6101E000235F
:104670007B617B69012B16D14FF0500383F31188C6
:10468000BFF36F8FBFF34F8F3B6100BF124B4FF0F3
:10469000FF321A60114B01221A60114B00221A607E
:1046A00000F0A2FB0EE07B69B3F1FF3F0AD14FF0AF
:1046B000500383F31188BFF36F8FBFF34F8FFB60FD
:1046C00000BFFEE700BF1837BD4680BDD0540008CC
:1046D000694A000824100020201000200C1000203F
:1046E0000410002080B400AF044B1B680133034A60
:1046F000136000BFBD4680BC704700BF281000207B
:1047000080B584B000AF0023FB600023BB60414B49
:104710001B68002B0AD14FF0500383F31188BFF3BD
:104720006F8FBFF34F8F3B6000BFFEE700F0CEFB03
:10473000384B1B68013B374A1360364B1B68002B14
:1047400061D1354B1B68002B5DD02EE0334BDB680D
:10475000DB68FB60FB6818331846FFF77BFDFB68DE
:1047600004331846FFF776FDFB68DB6A01229A40A6
:104770002B4B1B6813432A4A1360FB68DA6A134603
:104780009B0013449B00274A1A44FB6804331946D4
:104790001046FFF704FDFB68DA6A234B1B68DB6AEF
:1047A0009A4202D3214B01221A601C4B1B68002B3A
:1047B000CCD1FB68002B01D000F00CFA1C4B1B681D
:1047C0007B607B68002B10D000F036F80346002B8E
:1047D00002D0164B01221A607B68013B7B607B682C
:1047E000002BF1D1124B00221A60104B1B68002BDA
:1047F00009D00123BB600F4B4FF080521A60BFF30A
:104800004F8FBFF36F8F00F091FBBB6818461037D6
:10481000BD4680BD2810002000100020C00F0020E1
:1048200008100020040F0020000F002014100020AA
:104830001010002004ED00E080B586B000AF00232A
:104840007B61514B1B68002B40F08D804F4B1B68E8
:1048500001333B614D4A3B6913603B69002B20D11A
:104860004B4B1B681B68002B0AD04FF0500383F39F
:104870001188BFF36F8FBFF34F8F3B6000BFFEE720
:10488000434B1B68FB60434B1B68414A1360414A22
:10489000FB681360404B1B6801333F4A136000F014
:1048A00099F93E4B1B683A699A424DD3384B1B68C5
:1048B0001B68002B01D1012300E00023002B04D052
:1048C000364B4FF0FF321A603EE0314B1B68DB681D
:1048D000DB68BB60BB685B687B603A697B689A4257
:1048E00003D22E4A7B6813602EE0BB68043318465F
:1048F000FFF7B0FCBB689B6A002B04D0BB68183381
:104900001846FFF7A7FCBB68DB6A01229A40244BDC
:104910001B681343224A1360BB68DA6A13469B0084
:1049200013449B001F4A1A44BB68043319461046BF
:10493000FFF735FCBB68DA6A1B4B1B68DB6A9A42DF
:10494000B4D301237B61B1E7174B1B68DA6A1549C1
:1049500013469B0013449B000B441B68012B07D993
:1049600001237B6104E0114B1B6801330F4A136084
:104970000F4B1B68002B01D001237B617B6918461C
:104980001837BD4680BD00BF28100020041000204D
:10499000B80F0020BC0F00201810002020100020AD
:1049A00008100020040F0020000F0020101000202D
:1049B0001410002080B487B000AF264B1B68002B7A
:1049C00003D0254B01221A603FE0234B00221A60DE
:1049D000224B1B68FB60FB68B3FA83F3FB72FB7A24
:1049E000C3F11F037B611E497A6913469B00134480
:1049F0009B000B441B68002B0AD14FF0500383F33C
:104A00001188BFF36F8FBFF34F8F7B6000BFFEE74E
:104A10007A6913469B0013449B00114A13443B617F
:104A20003B695B685A683B695A603B695A683B69F5
:104A300008339A4204D13B695B685A683B695A6003
:104A40003B695B68DB68074A136000BF1C37BD46E3
:104A500080BC70472810002014100020081000208F
:104A6000040F0020000F002080B582B000AF7860F6
:104A700000F052F8064B1B68012BF9D9054B4FF09B
:104A800080521A60BFF34F8FBFF36F8FF0E700BF04
:104A9000040F002004ED00E080B582B000AF0023D9
:104AA0007B600CE07A6813469B0013449B00124A1B
:104AB00013441846FFF748FB7B6801337B607B6833
:104AC000062BEFD90D48FFF73FFB0D48FFF73CFBE6
:104AD0000C48FFF739FB0C48FFF736FB0B48FFF794
:104AE00033FB0B4B054A1A600A4B054A1A6000BF9C
:104AF0000837BD4680BD00BF040F0020900F002086
:104B0000A40F0020C00F0020D40F0020EC0F0020C5
:104B1000B80F0020BC0F002080B582B000AF19E0B4
:104B200000F0D4F9104BDB68DB687B607B680433F2
:104B30001846FFF78FFB0D4B1B68013B0B4A1360B8
:104B40000B4B1B68013B0A4A136000F0EFF97868D1
:104B500000F010F8064B1B68002BE1D100BF00BF2E
:104B60000837BD4680BD00BFD40F002000100020D4
:104B7000E80F002080B584B000AF78607B6893F8C0
:104B80005130002B08D17B681B6B184600F024FBCA
:104B9000786800F021FB18E07B6893F85130012B16
:104BA00003D1786800F018FB0FE07B6893F8513070
:104BB000022B0AD04FF0500383F31188BFF36F8F9D
:104BC000BFF34F8FFB6000BFFEE700BF1037BD464D
:104BD00080BD000080B483B000AF0E4B1B681B6823
:104BE000002B01D1012300E00023002B04D00A4B4D
:104BF0004FF0FF321A6008E0064B1B68DB68DB6889
:104C00007B607B685B68044A136000BF0C37BD465D
:104C100080BC7047B80F00202010002080B584B001
:104C200000AF78603960294B1B68FB60284B1B681C
:104C300004331846FFF70EFB0346002B0BD1244B21
:104C40001B68DB6A012202FA03F3DA43214B1B687B
:104C50001340204A13607B68B3F1FF3F0AD13B68E1
:104C6000002B07D01A4B1B68043319461A48FFF76C
:104C700096FA26E0FA687B681344BB60144B1B6805
:104C8000BA685A60BA68FB689A4209D2134B1A682C
:104C90000F4B1B68043319461046FFF7A3FA10E0C8
:104CA0000F4B1A680A4B1B68043319461046FFF76E
:104CB00099FA0C4B1B68BA689A4202D2094ABB683F
:104CC000136000BF1037BD4680BD00BF0410002038
:104CD000000F002008100020EC0F0020BC0F002067
:104CE000B80F00202010002080B485B000AFF8601D
:104CF000B9607A60FB68043BFB60FB684FF0807230
:104D00001A60FB68043BFB60BB6823F00102FB6890
:104D10001A60FB68043BFB60084AFB681A60FB688A
:104D2000143BFB607A68FB681A60FB68203BFB6001
:104D3000FB6818461437BD4680BC7047414D0008DB
:104D400080B485B000AF00237B60124B1B68B3F1C9
:104D5000FF3F0AD04FF0500383F31188BFF36F8FEA
:104D6000BFF34F8FFB6000BFFEE74FF0500383F3AC
:104D70001188BFF36F8FBFF34F8FBB6000BF00BFC1
:104D80007B68002BFCD000BF00BF1437BD4680BC41
:104D9000704700BF0C000020000000000000000071
:104DA000074B19680868B0E8F00F80F30988BFF373
:104DB0006F8F4FF0000080F311884EF00D0E70479A
:104DC000000F002000BF00BF06480068006880F3A5
:104DD000088862B661B6BFF34F8FBFF36F8F00DFF5
:104DE00000BF00BF08ED00E080B584B000AF324BDB
:104DF000FB60FB681B78DBB27B60FB68FF221A70EC
:104E0000FB681B78DBB2FB70FB78DBB203F050036E
:104E1000DAB22A4B1A702A4B07221A6009E0284B93
:104E20001B68013B264A1360FB78DBB25B00DBB2F8
:104E3000FB70FB78DBB203F08003802BEFD0204BBC
:104E40001B68C3F10703042B0AD04FF0500383F310
:104E50001188BFF36F8FBFF34F8FBB6000BFFEE7BA
:104E6000174B1B681B02164A1360154B1B6803F493
:104E7000E063134A13607B68DAB2FB681A70114B67
:104E80001B68104A43F4700313600E4B1B680D4AF5
:104E900043F07043136000F0B9F80B4B00221A6026
:104EA000FFF792FFFFF786FDFFF74AFF0023184642
:104EB0001037BD4680BD00BF00E400E02C1000208C
:104EC0003010002020ED00E00C00002080B483B002
:104ED00000AF4FF0500383F31188BFF36F8FBFF320
:104EE0004F8F7B6000BF0F4B1B6801330D4A13606F
:104EF0000C4B1B68012B0FD10B4B1B68DBB2002B3B
:104F00000AD04FF0500383F31188BFF36F8FBFF3C4
:104F10004F8F3B6000BFFEE700BF0C37BD4680BC33
:104F2000704700BF0C00002004ED00E080B483B0A7
:104F300000AF114B1B68002B0AD14FF0500383F3D5
:104F40001188BFF36F8FBFF34F8F7B6000BFFEE709
:104F5000094B1B68013B084A1360074B1B68002B79
:104F600005D100233B603B6883F3118800BF00BF7D
:104F70000C37BD4680BC70470C00002000000000CC
:104F8000EFF30980BFF36F8F0D4B1A6820E9F00F24
:104F900010602DE908404FF0500080F31188FFF7B2
:104FA00009FD4FF0000080F31188BDE80840196842
:104FB0000868B0E8F00F80F30988BFF36F8F70477F
:104FC000000F002000BF00BF80B582B000AF4FF0DF
:104FD000500383F31188BFF36F8FBFF34F8F7B6054
:104FE00000BFFFF729FC0346002B03D0064B4FF010
:104FF00080521A6000233B603B6883F3118800BF36
:1050000000BF0837BD4680BD04ED00E080B400AFAE
:105010000A4B00221A600A4B00221A60094B1B68D7
:10502000094AA2FB03239B09084A013B1360034B77
:1050300007221A6000BFBD4680BC704710E000E048
:1050400018E000E000000020D34D621014E000E002
:1050500080B58AB000AF78600023FB61FFF742FBA8
:10506000584B1B68002B01D100F010F9564B1A6801
:105070007B681340002B40F08E807B68002B1DD096
:1050800008227B6813447B607B6803F00703002BD6
:1050900014D07B6823F0070308337B607B6803F040
:1050A0000703002B0AD04FF0500383F31188BFF39E
:1050B0006F8FBFF34F8F7B6100BFFEE77B68002BD4
:1050C00069D0424B1B687A689A4264D8404B3B6275
:1050D0003F4B1B687B6204E07B6A3B627B6A1B6818
:1050E0007B627B6A5B687A689A4203D97B6A1B6839
:1050F000002BF1D1334B1B687A6A9A424BD03B6A42
:105100001B6808221344FB617B6A1A683B6A1A60B9
:105110007B6A5A687B68D21A08235B009A421FD9BF
:105120007A6A7B681344BB61BB6903F00703002BF9
:105130000AD04FF0500383F31188BFF36F8FBFF392
:105140004F8F3B6100BFFEE77B6A5A687B68D21ACB
:10515000BB695A607B6A7A685A60B86900F0F8F8EF
:105160001A4B1A687B6A5B68D31A184A1360174B8C
:105170001A68184B1B689A4203D2144B1B68154AD5
:1051800013607B6A5A68104B1B681A437B6A5A602B
:105190007B6A00221A60FFF7B3FAFB6903F007038A
:1051A000002B0AD04FF0500383F31188BFF36F8FA9
:1051B000BFF34F8FFB6000BFFEE7FB69184628373F
:1051C000BD4680BD3C1C0020481C0020401C002027
:1051D000341C0020441C002080B586B000AF7860ED
:1051E0007B687B617B68002B48D008235B427A692F
:1051F00013447B617B693B613B695A68214B1B68A7
:105200001340002B0AD14FF0500383F31188BFF3F2
:105210006F8FBFF34F8FFB6000BFFEE73B691B68DA
:10522000002B0AD04FF0500383F31188BFF36F8F28
:10523000BFF34F8FBB6000BFFEE73B695A68114B5D
:105240001B681340002B19D03B691B68002B15D13C
:105250003B695A680B4B1B68DB431A403B695A6039
:10526000FFF740FA3B695A68074B1B681344064A2C
:105270001360386900F06CF8FFF742FA00BF183786
:10528000BD4680BD481C0020401C002080B485B075
:1052900000AF4FF44063BB60274BFB60FB6803F03B
:1052A0000703002B0CD0FB680733FB60FB6823F07F
:1052B0000703FB60BA68FB68D31A1F4A1344BB603C
:1052C000FB687B601D4A7B6813601C4B00225A60A0
:1052D0007B68BA681344FB600822FB689B1AFB607A
:1052E000FB6823F00703FB60FB68154A1360144B4F
:1052F0001B6800225A60124B1B6800221A607B68F0
:105300003B603B68FA68D21A3B685A600C4B1A68DB
:105310003B681A603B685B680A4A13603B685B68DD
:10532000094A1360094B4FF000421A6000BF14375E
:10533000BD4680BC704700BF34100020341C0020E4
:105340003C1C0020441C0020401C0020481C002065
:1053500080B485B000AF7860274BFB6002E0FB684B
:105360001B68FB60FB681B687A689A42F7D8FB6889
:10537000BB60FB685B68BA6813447A689A4208D1DC
:10538000FB685A687B685B681A44FB685A60FB6874
:105390007B607B68BB607B685B68BA681A44FB68AB
:1053A0001B689A4218D1FB681A68144B1B689A4212
:1053B0000DD07B685A68FB681B685B681A447B6881
:1053C0005A60FB681B681A687B681A6008E00B4B20
:1053D0001A687B681A6003E0FB681A687B681A60C9
:1053E000FA687B689A4202D0FB687A681A6000BF4C
:1053F0001437BD4680BC7047341C00203C1C002084
:1054000070B500260C4D0D4C641BA410A64209D1AA
:1054100000F030F800260A4D0A4C641BA410A64286
:1054200005D170BD55F8043B98470136EEE755F8B5
:10543000043B98470136F2E7F0540008F0540008A6
:10544000F0540008F45400080A44914200F1FF337C
:1054500000D1704710B511F8014B914203F8014F8C
:10546000F9D110BD03460244934200D1704703F8BE
:10547000011BF9E7F8B500BFF8BC08BC9E467047B1
:0C548000F8B500BFF8BC08BC9E467047A1
:10548C0064656661756C745461736B008C540008B0
:10549C001502000800000000000000008000000061
:1054AC000000000000000000303132333435363754
:1054BC003839000002030405060708090A0B0C0D15
:1054CC000E0F101049444C45000000000000000075
:1054DC000000000001020304060708090000000098
:0454EC0001020304B2
:0454F000350100087A
:0454F400110100089A
:1054F8000024F4001000000001000000AAAAAAAAD3
:040000050800106976
:00000001FF
